{
  "contractName": "SleekMarketplace",
  "abi": [
    {
      "anonymous": false,
      "inputs": [
        {
          "indexed": false,
          "internalType": "uint256",
          "name": "id",
          "type": "uint256"
        },
        {
          "indexed": false,
          "internalType": "uint256",
          "name": "tokenId",
          "type": "uint256"
        },
        {
          "indexed": false,
          "internalType": "address",
          "name": "tokenAddress",
          "type": "address"
        },
        {
          "indexed": false,
          "internalType": "uint256",
          "name": "askingPrice",
          "type": "uint256"
        }
      ],
      "name": "itemAdded",
      "type": "event"
    },
    {
      "anonymous": false,
      "inputs": [
        {
          "indexed": false,
          "internalType": "uint256",
          "name": "id",
          "type": "uint256"
        },
        {
          "indexed": false,
          "internalType": "address",
          "name": "buyer",
          "type": "address"
        },
        {
          "indexed": false,
          "internalType": "uint256",
          "name": "askingPrice",
          "type": "uint256"
        }
      ],
      "name": "itemSold",
      "type": "event"
    },
    {
      "inputs": [
        {
          "internalType": "uint256",
          "name": "",
          "type": "uint256"
        }
      ],
      "name": "itemsForSale",
      "outputs": [
        {
          "internalType": "uint256",
          "name": "id",
          "type": "uint256"
        },
        {
          "internalType": "address",
          "name": "tokenAddress",
          "type": "address"
        },
        {
          "internalType": "uint256",
          "name": "tokenId",
          "type": "uint256"
        },
        {
          "internalType": "address payable",
          "name": "seller",
          "type": "address"
        },
        {
          "internalType": "uint256",
          "name": "askingPrice",
          "type": "uint256"
        },
        {
          "internalType": "bool",
          "name": "isSold",
          "type": "bool"
        }
      ],
      "stateMutability": "view",
      "type": "function",
      "constant": true
    },
    {
      "inputs": [
        {
          "internalType": "uint256",
          "name": "tokenId",
          "type": "uint256"
        },
        {
          "internalType": "address",
          "name": "tokenAddress",
          "type": "address"
        },
        {
          "internalType": "uint256",
          "name": "askingPrice",
          "type": "uint256"
        }
      ],
      "name": "addItemToMarket",
      "outputs": [
        {
          "internalType": "uint256",
          "name": "",
          "type": "uint256"
        }
      ],
      "stateMutability": "nonpayable",
      "type": "function"
    },
    {
      "inputs": [
        {
          "internalType": "uint256",
          "name": "id",
          "type": "uint256"
        }
      ],
      "name": "buyItem",
      "outputs": [],
      "stateMutability": "payable",
      "type": "function",
      "payable": true
    }
  ],
  "bytecode": "0x608060405234801561001057600080fd5b50611371806100206000396000f3fe6080604052600436106100345760003560e01c8063092d0afc146100395780634abc22021461007b578063e7fb74c7146100b8575b600080fd5b34801561004557600080fd5b50610060600480360381019061005b9190610d1b565b6100d4565b60405161007296959493929190611039565b60405180910390f35b34801561008757600080fd5b506100a2600480360381019061009d9190610d48565b61016d565b6040516100af9190610fe7565b60405180910390f35b6100d260048036038101906100cd9190610d1b565b6105ea565b005b600081815481106100e457600080fd5b90600052602060002090600602016000915090508060000154908060010160009054906101000a900473ffffffffffffffffffffffffffffffffffffffff16908060020154908060030160009054906101000a900473ffffffffffffffffffffffffffffffffffffffff16908060040154908060050160009054906101000a900460ff16905086565b6000828460008290503373ffffffffffffffffffffffffffffffffffffffff168173ffffffffffffffffffffffffffffffffffffffff16636352211e846040518263ffffffff1660e01b81526004016101c69190610fe7565b60206040518083038186803b1580156101de57600080fd5b505afa1580156101f2573d6000803e3d6000fd5b505050506040513d601f19601f820116820180604052508101906102169190610cee565b73ffffffffffffffffffffffffffffffffffffffff161461023657600080fd5b858760008290503073ffffffffffffffffffffffffffffffffffffffff168173ffffffffffffffffffffffffffffffffffffffff1663081812fc846040518263ffffffff1660e01b815260040161028d9190610fe7565b60206040518083038186803b1580156102a557600080fd5b505afa1580156102b9573d6000803e3d6000fd5b505050506040513d601f19601f820116820180604052508101906102dd9190610cee565b73ffffffffffffffffffffffffffffffffffffffff16146102fd57600080fd5b60001515600160008b73ffffffffffffffffffffffffffffffffffffffff1673ffffffffffffffffffffffffffffffffffffffff16815260200190815260200160002060008c815260200190815260200160002060009054906101000a900460ff161515146103a1576040517f08c379a000000000000000000000000000000000000000000000000000000000815260040161039890610f27565b60405180910390fd5b60008080549050905060006040518060c001604052808381526020018c73ffffffffffffffffffffffffffffffffffffffff1681526020018d81526020013373ffffffffffffffffffffffffffffffffffffffff1681526020018b81526020016000151581525090806001815401808255809150506001900390600052602060002090600602016000909190919091506000820151816000015560208201518160010160006101000a81548173ffffffffffffffffffffffffffffffffffffffff021916908373ffffffffffffffffffffffffffffffffffffffff1602179055506040820151816002015560608201518160030160006101000a81548173ffffffffffffffffffffffffffffffffffffffff021916908373ffffffffffffffffffffffffffffffffffffffff1602179055506080820151816004015560a08201518160050160006101000a81548160ff021916908315150217905550505060018060008c73ffffffffffffffffffffffffffffffffffffffff1673ffffffffffffffffffffffffffffffffffffffff16815260200190815260200160002060008d815260200190815260200160002060006101000a81548160ff021916908315150217905550806000828154811061057c5761057b6111ba565b5b9060005260206000209060060201600001541461059c5761059b61118b565b5b7fd3742413e0092c98517699ed9f8567218c740a5a265a7a986d9430d597937522818c8c8c6040516105d1949392919061109a565b60405180910390a1809750505050505050509392505050565b80600080549050811080156106235750806000828154811061060f5761060e6111ba565b5b906000526020600020906006020160000154145b610662576040517f08c379a000000000000000000000000000000000000000000000000000000000815260040161065990610fa7565b60405180910390fd5b81600015156000828154811061067b5761067a6111ba565b5b906000526020600020906006020160050160009054906101000a900460ff161515146106dc576040517f08c379a00000000000000000000000000000000000000000000000000000000081526004016106d390610fc7565b60405180910390fd5b600083815481106106f0576106ef6111ba565b5b906000526020600020906006020160010160009054906101000a900473ffffffffffffffffffffffffffffffffffffffff1660008481548110610736576107356111ba565b5b90600052602060002090600602016002015460008290503073ffffffffffffffffffffffffffffffffffffffff168173ffffffffffffffffffffffffffffffffffffffff1663081812fc846040518263ffffffff1660e01b815260040161079d9190610fe7565b60206040518083038186803b1580156107b557600080fd5b505afa1580156107c9573d6000803e3d6000fd5b505050506040513d601f19601f820116820180604052508101906107ed9190610cee565b73ffffffffffffffffffffffffffffffffffffffff161461080d57600080fd5b60008681548110610821576108206111ba565b5b906000526020600020906006020160040154341015610875576040517f08c379a000000000000000000000000000000000000000000000000000000000815260040161086c90610f47565b60405180910390fd5b60008681548110610889576108886111ba565b5b906000526020600020906006020160030160009054906101000a900473ffffffffffffffffffffffffffffffffffffffff1673ffffffffffffffffffffffffffffffffffffffff163373ffffffffffffffffffffffffffffffffffffffff161415610929576040517f08c379a000000000000000000000000000000000000000000000000000000000815260040161092090610f87565b60405180910390fd5b60016000878154811061093f5761093e6111ba565b5b906000526020600020906006020160050160006101000a81548160ff0219169083151502179055506000600160008089815481106109805761097f6111ba565b5b906000526020600020906006020160010160009054906101000a900473ffffffffffffffffffffffffffffffffffffffff1673ffffffffffffffffffffffffffffffffffffffff1673ffffffffffffffffffffffffffffffffffffffff1681526020019081526020016000206000808981548110610a0157610a006111ba565b5b906000526020600020906006020160020154815260200190815260200160002060006101000a81548160ff02191690831515021790555060008681548110610a4c57610a4b6111ba565b5b906000526020600020906006020160010160009054906101000a900473ffffffffffffffffffffffffffffffffffffffff1673ffffffffffffffffffffffffffffffffffffffff166342842e0e60008881548110610aad57610aac6111ba565b5b906000526020600020906006020160030160009054906101000a900473ffffffffffffffffffffffffffffffffffffffff163360008a81548110610af457610af36111ba565b5b9060005260206000209060060201600201546040518463ffffffff1660e01b8152600401610b2493929190610ef0565b600060405180830381600087803b158015610b3e57600080fd5b505af1158015610b52573d6000803e3d6000fd5b505050506000808781548110610b6b57610b6a6111ba565b5b906000526020600020906006020160030160009054906101000a900473ffffffffffffffffffffffffffffffffffffffff1673ffffffffffffffffffffffffffffffffffffffff1634604051610bc090610edb565b60006040518083038185875af1925050503d8060008114610bfd576040519150601f19603f3d011682016040523d82523d6000602084013e610c02565b606091505b5050905080610c46576040517f08c379a0000000000000000000000000000000000000000000000000000000008152600401610c3d90610f67565b60405180910390fd5b7f8164c6f8917e418c49813e4586897c7067de5a886aa1bea980cd11fa57d48264873360008a81548110610c7d57610c7c6111ba565b5b906000526020600020906006020160040154604051610c9e93929190611002565b60405180910390a150505050505050565b600081359050610cbe8161130d565b92915050565b600081519050610cd38161130d565b92915050565b600081359050610ce881611324565b92915050565b600060208284031215610d0457610d036111e9565b5b6000610d1284828501610cc4565b91505092915050565b600060208284031215610d3157610d306111e9565b5b6000610d3f84828501610cd9565b91505092915050565b600080600060608486031215610d6157610d606111e9565b5b6000610d6f86828701610cd9565b9350506020610d8086828701610caf565b9250506040610d9186828701610cd9565b9150509250925092565b610da481611155565b82525050565b610db38161110d565b82525050565b610dc2816110fb565b82525050565b610dd18161111f565b82525050565b6000610de46018836110ea565b9150610def826111ee565b602082019050919050565b6000610e07602e836110ea565b9150610e1282611217565b604082019050919050565b6000610e2a601c836110ea565b9150610e3582611266565b602082019050919050565b6000610e4d601f836110ea565b9150610e588261128f565b602082019050919050565b6000610e706014836110ea565b9150610e7b826112b8565b602082019050919050565b6000610e936000836110df565b9150610e9e826112e1565b600082019050919050565b6000610eb66015836110ea565b9150610ec1826112e4565b602082019050919050565b610ed58161114b565b82525050565b6000610ee682610e86565b9150819050919050565b6000606082019050610f056000830186610d9b565b610f126020830185610db9565b610f1f6040830184610ecc565b949350505050565b60006020820190508181036000830152610f4081610dd7565b9050919050565b60006020820190508181036000830152610f6081610dfa565b9050919050565b60006020820190508181036000830152610f8081610e1d565b9050919050565b60006020820190508181036000830152610fa081610e40565b9050919050565b60006020820190508181036000830152610fc081610e63565b9050919050565b60006020820190508181036000830152610fe081610ea9565b9050919050565b6000602082019050610ffc6000830184610ecc565b92915050565b60006060820190506110176000830186610ecc565b6110246020830185610db9565b6110316040830184610ecc565b949350505050565b600060c08201905061104e6000830189610ecc565b61105b6020830188610db9565b6110686040830187610ecc565b6110756060830186610daa565b6110826080830185610ecc565b61108f60a0830184610dc8565b979650505050505050565b60006080820190506110af6000830187610ecc565b6110bc6020830186610ecc565b6110c96040830185610db9565b6110d66060830184610ecc565b95945050505050565b600081905092915050565b600082825260208201905092915050565b60006111068261112b565b9050919050565b60006111188261112b565b9050919050565b60008115159050919050565b600073ffffffffffffffffffffffffffffffffffffffff82169050919050565b6000819050919050565b600061116082611167565b9050919050565b600061117282611179565b9050919050565b60006111848261112b565b9050919050565b7f4e487b7100000000000000000000000000000000000000000000000000000000600052600160045260246000fd5b7f4e487b7100000000000000000000000000000000000000000000000000000000600052603260045260246000fd5b600080fd5b7f4974656d20697320616c7265616479206f6e2073616c65210000000000000000600082015250565b7f5468652073656e742076616c7565206973206c6f776572207468616e2074686560008201527f2061637475616c20707269636521000000000000000000000000000000000000602082015250565b7f46756e64732063616c6c20746f2073656c6c6572206661696c65642100000000600082015250565b7f596f752063616e206e6f742062757920796f7572206f776e20746f6b656e2100600082015250565b7f436f756c64206e6f742066696e64206974656d21000000000000000000000000600082015250565b50565b7f4974656d20697320616c726561647920736f6c64210000000000000000000000600082015250565b611316816110fb565b811461132157600080fd5b50565b61132d8161114b565b811461133857600080fd5b5056fea26469706673582212207d4912c51c5e2214d1265412676b8c7b78e79586609326179e2048aabc20bf5664736f6c63430008060033",
  "immutableReferences": {},
  "source": "pragma solidity ^0.8.0;\n\nimport \"@openzeppelin/contracts/token/ERC721/IERC721.sol\";\n\ncontract SleekMarketplace {\n    struct AuctionItem {\n        uint256 id;\n        address tokenAddress;\n        uint256 tokenId;\n        address payable seller;\n        uint256 askingPrice;\n        bool isSold;\n    }\n\n    AuctionItem[] public itemsForSale;\n    mapping(address => mapping(uint256 => bool)) activeItems; //Maps tokenaddress to id which points to isSold boolFlag\n\n    event itemAdded(uint256 id, uint256 tokenId, address tokenAddress, uint256 askingPrice);\n    event itemSold(uint256 id, address buyer, uint256 askingPrice);\n\n    modifier OnlyItemOwner(address tokenAddress, uint256 tokenId) {\n        IERC721 tokenContract = IERC721(tokenAddress);\n        require(tokenContract.ownerOf(tokenId) == msg.sender);\n        _;\n    }\n\n     modifier HasTransferApproval(address tokenAddress, uint256 tokenId) {\n        IERC721 tokenContract = IERC721(tokenAddress);\n        require(tokenContract.getApproved(tokenId) == address(this));\n        _;\n    }\n\n    modifier ItemExists(uint256 id){\n        require(id < itemsForSale.length && itemsForSale[id].id == id, \"Could not find item!\");\n        _;\n    }\n\n    modifier IsForSale(uint256 id){\n        require(itemsForSale[id].isSold == false, \"Item is already sold!\");\n        _;\n    }\n\n    function addItemToMarket(\n        uint256 tokenId, address tokenAddress, uint256 askingPrice\n        ) \n        OnlyItemOwner(\n            tokenAddress, tokenId\n        )\n        HasTransferApproval(\n        tokenAddress, tokenId\n        )\n        external returns(uint256){\n            require(activeItems[tokenAddress][tokenId] == false, \"Item is already on sale!\");\n            uint256 newItemId = itemsForSale.length;\n            itemsForSale.push(AuctionItem(\n                newItemId,\n                tokenAddress, \n                tokenId,\n                payable(msg.sender),\n                askingPrice,\n                false\n            ));\n            activeItems[tokenAddress][tokenId] = true;\n\n            assert(itemsForSale[newItemId].id == newItemId);\n            emit itemAdded(newItemId, tokenId, tokenAddress, askingPrice);\n            return newItemId;\n        }\n\n    function buyItem(uint256 id) payable external \n    ItemExists(id) \n    IsForSale(id) \n    HasTransferApproval(itemsForSale[id].tokenAddress, itemsForSale[id].tokenId){\n        require(msg.value >= itemsForSale[id].askingPrice, \"The sent value is lower than the actual price!\");\n        require(msg.sender != itemsForSale[id].seller, \"You can not buy your own token!\");\n\n        itemsForSale[id].isSold = true;\n         activeItems[itemsForSale[id].tokenAddress][itemsForSale[id].tokenId] = false;\n         IERC721(itemsForSale[id].tokenAddress).safeTransferFrom(itemsForSale[id].seller, msg.sender, itemsForSale[id].tokenId);\n         (bool success, ) = itemsForSale[id].seller.call{value: msg.value}(\"\");\n         require(success, \"Funds call to seller failed!\");\n\n         emit itemSold(id, msg.sender, itemsForSale[id].askingPrice);\n    }\n\n\n}",
  "sourcePath": "/Users/tushartapadia/Desktop/SleekNFTMarketplace/contracts/contracts/Marketplace.sol",
  "compiler": {
    "name": "solc",
    "version": "0.8.6+commit.11564f7e.Emscripten.clang"
  },
  "schemaVersion": "3.4.1",
  "updatedAt": "2021-08-05T10:41:34.313Z",
  "networkType": "ethereum",
  "devdoc": {
    "kind": "dev",
    "methods": {},
    "version": 1
  },
  "userdoc": {
    "kind": "user",
    "methods": {},
    "version": 1
  }
}